{
  "transactions": [
    {
      "hash": "0x4dd7469088d88cf8e4030002fb8a444f833c8c519a7d0bb55ce1d21aa734aaa5",
      "transactionType": "CALL",
      "contractName": null,
      "contractAddress": "0x7cf220c6861724a30f26bb7a4e4b14bee4cc931e",
      "function": "burn(uint256)",
      "arguments": [
        "4"
      ],
      "transaction": {
        "from": "0x1127276076a30922484aa85da548a4c459ceeb48",
        "to": "0x7cf220c6861724a30f26bb7a4e4b14bee4cc931e",
        "gas": "0xb1cb",
        "value": "0x0",
        "input": "0x42966c680000000000000000000000000000000000000000000000000000000000000004",
        "nonce": "0xd",
        "chainId": "0xa278"
      },
      "additionalContracts": [],
      "isFixedGasLimit": false
    }
  ],
  "receipts": [
    {
      "status": "0x1",
      "cumulativeGasUsed": "0x97f6",
      "logs": [
        {
          "address": "0x7cf220c6861724a30f26bb7a4e4b14bee4cc931e",
          "topics": [
            "0xddf252ad1be2c89b69c2b068fc378daa952ba7f163c4a11628f55a4df523b3ef",
            "0x0000000000000000000000001127276076a30922484aa85da548a4c459ceeb48",
            "0x0000000000000000000000000000000000000000000000000000000000000000",
            "0x0000000000000000000000000000000000000000000000000000000000000004"
          ],
          "data": "0x",
          "blockHash": "0x0268c1bce3228c1206c1c34d5882665b4ba454e6f8f1d38e00a2f84e2e02aeed",
          "blockNumber": "0x12",
          "transactionHash": "0x4dd7469088d88cf8e4030002fb8a444f833c8c519a7d0bb55ce1d21aa734aaa5",
          "transactionIndex": "0x0",
          "logIndex": "0x0",
          "removed": false
        }
      ],
      "logsBloom": "0x00000000000000000001000000000000000000000000000000000000000000000000000000000000000000000000000000000000000000000000000000000001000000000000000000400008000000000000000010000000000000000000000008000000020000000000000000000800000000000000000000000010000000000000000000000000000000000000000000000000000000000000000000000000000000000000008000000000000000000000000000000000002000000000000000000402000000000000000000000000000000008000000000000000000020000000000000000000000000000000000000000000000000000000000000000000",
      "type": "0x2",
      "transactionHash": "0x4dd7469088d88cf8e4030002fb8a444f833c8c519a7d0bb55ce1d21aa734aaa5",
      "transactionIndex": "0x0",
      "blockHash": "0x0268c1bce3228c1206c1c34d5882665b4ba454e6f8f1d38e00a2f84e2e02aeed",
      "blockNumber": "0x12",
      "gasUsed": "0x97f6",
      "effectiveGasPrice": "0x5d21dba01",
      "from": "0x1127276076a30922484aa85da548a4c459ceeb48",
      "to": "0x7cf220c6861724a30f26bb7a4e4b14bee4cc931e",
      "contractAddress": null
    }
  ],
  "libraries": [],
  "pending": [],
  "returns": {},
  "timestamp": 1729418218,
  "chain": 41592,
  "commit": "3c60319"
}