{
  "transactions": [
    {
      "hash": "0x046fdb9fd11026420d536ed6e29036fb166f4f349d3d4b60076abece55fa8fca",
      "transactionType": "CALL",
      "contractName": null,
      "contractAddress": "0x7cf220c6861724a30f26bb7a4e4b14bee4cc931e",
      "function": "burn(uint256)",
      "arguments": [
        "1"
      ],
      "transaction": {
        "from": "0x1127276076a30922484aa85da548a4c459ceeb48",
        "to": "0x7cf220c6861724a30f26bb7a4e4b14bee4cc931e",
        "gas": "0xb7fe",
        "value": "0x0",
        "input": "0x42966c680000000000000000000000000000000000000000000000000000000000000001",
        "nonce": "0x5",
        "chainId": "0xa278"
      },
      "additionalContracts": [],
      "isFixedGasLimit": false
    }
  ],
  "receipts": [
    {
      "status": "0x1",
      "cumulativeGasUsed": "0x97f6",
      "logs": [
        {
          "address": "0x7cf220c6861724a30f26bb7a4e4b14bee4cc931e",
          "topics": [
            "0xddf252ad1be2c89b69c2b068fc378daa952ba7f163c4a11628f55a4df523b3ef",
            "0x0000000000000000000000001127276076a30922484aa85da548a4c459ceeb48",
            "0x0000000000000000000000000000000000000000000000000000000000000000",
            "0x0000000000000000000000000000000000000000000000000000000000000001"
          ],
          "data": "0x",
          "blockHash": "0xc8afd9d4359ad8dd0025c51ad8668fd3c0eb3bb3bd46c0f6e025f8fbb9a90a09",
          "blockNumber": "0xa",
          "transactionHash": "0x046fdb9fd11026420d536ed6e29036fb166f4f349d3d4b60076abece55fa8fca",
          "transactionIndex": "0x0",
          "logIndex": "0x0",
          "removed": false
        }
      ],
      "logsBloom": "0x00000000000000000001000000000000000000000000000000000000000000000000000000000000000000000000000000000000000000000000000000040001000000000000000000400008000000000000000010040000000000000000000000000000020000000000000000000800000000000000000000000010000000000000000000000000000000000000000000000000000000000000000000000000000000000000008000000000000000000000000000000000000000000000000000000402000000000000000000000000000000000000000000000000000060000000000000000000000000000000000000000000000000000000000000000000",
      "type": "0x2",
      "transactionHash": "0x046fdb9fd11026420d536ed6e29036fb166f4f349d3d4b60076abece55fa8fca",
      "transactionIndex": "0x0",
      "blockHash": "0xc8afd9d4359ad8dd0025c51ad8668fd3c0eb3bb3bd46c0f6e025f8fbb9a90a09",
      "blockNumber": "0xa",
      "gasUsed": "0x97f6",
      "effectiveGasPrice": "0x5d21dba01",
      "from": "0x1127276076a30922484aa85da548a4c459ceeb48",
      "to": "0x7cf220c6861724a30f26bb7a4e4b14bee4cc931e",
      "contractAddress": null
    }
  ],
  "libraries": [],
  "pending": [],
  "returns": {},
  "timestamp": 1729416273,
  "chain": 41592,
  "commit": "3c60319"
}