{
  "transactions": [
    {
      "hash": "0x796fe78ddb3612a84c05f077c2ddcf8ab72e60312c17fc7b675f124bb7d40168",
      "transactionType": "CALL",
      "contractName": null,
      "contractAddress": "0x7cf220c6861724a30f26bb7a4e4b14bee4cc931e",
      "function": "safeMint(address,string)",
      "arguments": [
        "0x1127276076A30922484Aa85da548A4c459CeEb48",
        "https://olive-payable-galliform-641.mypinata.cloud/ipfs/QmPpMKQuK3G2juJixBiMKUt9QsWDUmpZw4dtnk5RGJ5r9b"
      ],
      "transaction": {
        "from": "0x1127276076a30922484aa85da548a4c459ceeb48",
        "to": "0x7cf220c6861724a30f26bb7a4e4b14bee4cc931e",
        "gas": "0x45f0d",
        "value": "0x0",
        "input": "0xd204c45e0000000000000000000000001127276076a30922484aa85da548a4c459ceeb480000000000000000000000000000000000000000000000000000000000000040000000000000000000000000000000000000000000000000000000000000006668747470733a2f2f6f6c6976652d70617961626c652d67616c6c69666f726d2d3634312e6d7970696e6174612e636c6f75642f697066732f516d50704d4b51754b3347326a754a697842694d4b55743951735744556d705a773464746e6b3552474a357239620000000000000000000000000000000000000000000000000000",
        "nonce": "0x1",
        "chainId": "0xa278"
      },
      "additionalContracts": [],
      "isFixedGasLimit": false
    }
  ],
  "receipts": [
    {
      "status": "0x1",
      "cumulativeGasUsed": "0x32a2d",
      "logs": [
        {
          "address": "0x7cf220c6861724a30f26bb7a4e4b14bee4cc931e",
          "topics": [
            "0xddf252ad1be2c89b69c2b068fc378daa952ba7f163c4a11628f55a4df523b3ef",
            "0x0000000000000000000000000000000000000000000000000000000000000000",
            "0x0000000000000000000000001127276076a30922484aa85da548a4c459ceeb48",
            "0x0000000000000000000000000000000000000000000000000000000000000001"
          ],
          "data": "0x",
          "blockHash": "0x377457cbde68de9978b799998506d067eddf96d7ca5eb973a116c42fa9f6a9e2",
          "blockNumber": "0x6",
          "transactionHash": "0x796fe78ddb3612a84c05f077c2ddcf8ab72e60312c17fc7b675f124bb7d40168",
          "transactionIndex": "0x0",
          "logIndex": "0x0",
          "removed": false
        }
      ],
      "logsBloom": "0x00000000000000000001000000000000000000000000000000000000000000000000000000000000000000000000000000000000000000000000000000040001000000000000000000400008000000000000000010040000000000000000000000000000020000000000000000000800000000000000000000000010000000000000000000000000000000000000000000000000000000000000000000000000000000000000008000000000000000000000000000000000000000000000000000000402000000000000000000000000000000000000000000000000000060000000000000000000000000000000000000000000000000000000000000000000",
      "type": "0x2",
      "transactionHash": "0x796fe78ddb3612a84c05f077c2ddcf8ab72e60312c17fc7b675f124bb7d40168",
      "transactionIndex": "0x0",
      "blockHash": "0x377457cbde68de9978b799998506d067eddf96d7ca5eb973a116c42fa9f6a9e2",
      "blockNumber": "0x6",
      "gasUsed": "0x32a2d",
      "effectiveGasPrice": "0x5d21dba01",
      "from": "0x1127276076a30922484aa85da548a4c459ceeb48",
      "to": "0x7cf220c6861724a30f26bb7a4e4b14bee4cc931e",
      "contractAddress": null
    }
  ],
  "libraries": [],
  "pending": [],
  "returns": {},
  "timestamp": 1729397402,
  "chain": 41592,
  "commit": "3c60319"
}