{
  "transactions": [
    {
      "hash": "0xfc974b24656779953898dc74db9f6bb3566fd6b40a2914dfa3d6973702a0ce35",
      "transactionType": "CALL",
      "contractName": null,
      "contractAddress": "0x7cf220c6861724a30f26bb7a4e4b14bee4cc931e",
      "function": "safeMint(address,string)",
      "arguments": [
        "0x1127276076A30922484Aa85da548A4c459CeEb48",
        "https://olive-payable-galliform-641.mypinata.cloud/ipfs/QmUtTuNgSLaGWDjhidcRLigCdzYAS4tJayS33tVhDiDpyD"
      ],
      "transaction": {
        "from": "0x1127276076a30922484aa85da548a4c459ceeb48",
        "to": "0x7cf220c6861724a30f26bb7a4e4b14bee4cc931e",
        "gas": "0x3a687",
        "value": "0x0",
        "input": "0xd204c45e0000000000000000000000001127276076a30922484aa85da548a4c459ceeb480000000000000000000000000000000000000000000000000000000000000040000000000000000000000000000000000000000000000000000000000000006668747470733a2f2f6f6c6976652d70617961626c652d67616c6c69666f726d2d3634312e6d7970696e6174612e636c6f75642f697066732f516d557454754e67534c614757446a68696463524c696743647a59415334744a61795333337456684469447079440000000000000000000000000000000000000000000000000000",
        "nonce": "0xf",
        "chainId": "0xa278"
      },
      "additionalContracts": [],
      "isFixedGasLimit": false
    }
  ],
  "receipts": [
    {
      "status": "0x1",
      "cumulativeGasUsed": "0x2a495",
      "logs": [
        {
          "address": "0x7cf220c6861724a30f26bb7a4e4b14bee4cc931e",
          "topics": [
            "0xddf252ad1be2c89b69c2b068fc378daa952ba7f163c4a11628f55a4df523b3ef",
            "0x0000000000000000000000000000000000000000000000000000000000000000",
            "0x0000000000000000000000001127276076a30922484aa85da548a4c459ceeb48",
            "0x0000000000000000000000000000000000000000000000000000000000000008"
          ],
          "data": "0x",
          "blockHash": "0x1b0ac36123a9384039e483648aa35211539f7929522a52352395a5ceeca12e87",
          "blockNumber": "0x14",
          "transactionHash": "0xfc974b24656779953898dc74db9f6bb3566fd6b40a2914dfa3d6973702a0ce35",
          "transactionIndex": "0x0",
          "logIndex": "0x0",
          "removed": false
        }
      ],
      "logsBloom": "0x00000000000000000001000000000000000000000000000000000000000000000000000000000000000000000000000000000000000080000000000000000001000000000000000000400008000000000000000010000000000000000000000000000000020000000000000000000800000000000000000000000010000000000080000000000000000000000000000000000000000000000000000000000000000000000000008000000000000000000000000000000000000000000000000040000402000000000000000000000000000000000000000000000000000020000000000000000000000000000000000000000000000000000000000000000000",
      "type": "0x2",
      "transactionHash": "0xfc974b24656779953898dc74db9f6bb3566fd6b40a2914dfa3d6973702a0ce35",
      "transactionIndex": "0x0",
      "blockHash": "0x1b0ac36123a9384039e483648aa35211539f7929522a52352395a5ceeca12e87",
      "blockNumber": "0x14",
      "gasUsed": "0x2a495",
      "effectiveGasPrice": "0x5d21dba01",
      "from": "0x1127276076a30922484aa85da548a4c459ceeb48",
      "to": "0x7cf220c6861724a30f26bb7a4e4b14bee4cc931e",
      "contractAddress": null
    }
  ],
  "libraries": [],
  "pending": [],
  "returns": {},
  "timestamp": 1729418402,
  "chain": 41592,
  "commit": "3c60319"
}