{
  "transactions": [
    {
      "hash": "0x27486b1824b32bb27f1e57d45b30b3d3e0fd7ccf934d945062cb4d3ad7a8e4d4",
      "transactionType": "CALL",
      "contractName": null,
      "contractAddress": "0x7cf220c6861724a30f26bb7a4e4b14bee4cc931e",
      "function": "safeMint(address,string)",
      "arguments": [
        "0x1127276076A30922484Aa85da548A4c459CeEb48",
        "https://olive-payable-galliform-641.mypinata.cloud/ipfs/QmaymcxE3t3ZNbKzJExYzBhWQhALUmnBaViuYV7pdaZuv1"
      ],
      "transaction": {
        "from": "0x1127276076a30922484aa85da548a4c459ceeb48",
        "to": "0x7cf220c6861724a30f26bb7a4e4b14bee4cc931e",
        "gas": "0x43f30",
        "value": "0x0",
        "input": "0xd204c45e0000000000000000000000001127276076a30922484aa85da548a4c459ceeb480000000000000000000000000000000000000000000000000000000000000040000000000000000000000000000000000000000000000000000000000000006668747470733a2f2f6f6c6976652d70617961626c652d67616c6c69666f726d2d3634312e6d7970696e6174612e636c6f75642f697066732f516d61796d6378453374335a4e624b7a4a4578597a4268575168414c556d6e42615669755956377064615a7576310000000000000000000000000000000000000000000000000000",
        "nonce": "0xe",
        "chainId": "0xa278"
      },
      "additionalContracts": [],
      "isFixedGasLimit": false
    }
  ],
  "receipts": [
    {
      "status": "0x1",
      "cumulativeGasUsed": "0x2e761",
      "logs": [
        {
          "address": "0x7cf220c6861724a30f26bb7a4e4b14bee4cc931e",
          "topics": [
            "0xddf252ad1be2c89b69c2b068fc378daa952ba7f163c4a11628f55a4df523b3ef",
            "0x0000000000000000000000000000000000000000000000000000000000000000",
            "0x0000000000000000000000001127276076a30922484aa85da548a4c459ceeb48",
            "0x0000000000000000000000000000000000000000000000000000000000000007"
          ],
          "data": "0x",
          "blockHash": "0xfadc0ae96241539aa1bef25cd217e60ff287031aa281482766a33a69f70d14ca",
          "blockNumber": "0x13",
          "transactionHash": "0x27486b1824b32bb27f1e57d45b30b3d3e0fd7ccf934d945062cb4d3ad7a8e4d4",
          "transactionIndex": "0x0",
          "logIndex": "0x0",
          "removed": false
        }
      ],
      "logsBloom": "0x00000000000000000001000000000000000000000000000000000000000000000000000000000000000000000000000000001000000000000000000000000001000020000000000000400008000000000000000010000000000000000000000000000000020000000000000000000800000000000000000000000010000000000000000000000000000000000000000000000000000000000000000000000000000000000000008000000000000000000000000000000000000000000000000000000402000000000000000000000000000000000000000000000100000020000000000000000000000000000000000000000000000000000000000000000000",
      "type": "0x2",
      "transactionHash": "0x27486b1824b32bb27f1e57d45b30b3d3e0fd7ccf934d945062cb4d3ad7a8e4d4",
      "transactionIndex": "0x0",
      "blockHash": "0xfadc0ae96241539aa1bef25cd217e60ff287031aa281482766a33a69f70d14ca",
      "blockNumber": "0x13",
      "gasUsed": "0x2e761",
      "effectiveGasPrice": "0x5d21dba01",
      "from": "0x1127276076a30922484aa85da548a4c459ceeb48",
      "to": "0x7cf220c6861724a30f26bb7a4e4b14bee4cc931e",
      "contractAddress": null
    }
  ],
  "libraries": [],
  "pending": [],
  "returns": {},
  "timestamp": 1729418383,
  "chain": 41592,
  "commit": "3c60319"
}